:020000040800F2
:10000000904D0020612E00083518000839180008AE
:100010003D180008411800084518000800000000BD
:100020000000000000000000000000004918000867
:100030004B18000800000000BB3100081F31000809
:10004000852E0008852E0008852E0008852E0008C4
:10005000852E0008852E0008852E0008852E0008B4
:10006000852E0008852E0008852E0008852E0008A4
:10007000852E0008852E0008852E0008852E000894
:10008000852E0008852E0008852E0008852E000884
:100090005D130008852E0008852E0008852E0008B7
:1000A000852E0008D7140008852E0008852E00082C
:1000B000891400086D1500089F150008852E00089A
:1000C000852E0008852E0008852E0008852E000844
:1000D000852E000829170008852E0008D115000874
:1000E000852E0008852E0008852E0008852E000824
:1000F00009150008852E0008852E0008852E0008A9
:10010000852E0008852E00083B150008852E000866
:10011000C9170008FF170008852E0008852E000863
:10012000852E0008852E0008852E0008852E0008E3
:10013000852E0008852E0008852E0008852E0008D3
:10014000852E0008852E0008852E0008852E0008C3
:10015000852E0008852E0008852E0008852E0008B3
:10016000852E0008852E0008852E0008852E0008A3
:10017000852E0008852E0008852E0008852E000893
:10018000852E0008852E000800F002F800F03CF8EB
:100190000AA090E8000C82448344AAF10107DA45E2
:1001A00001D100F031F8AFF2090EBAE80F0013F0F8
:1001B000010F18BFFB1A43F001031847D4BE00001B
:1001C000F4BE0000103A24BF78C878C1FAD85207AC
:1001D00024BF30C830C144BF04680C6070470000C1
:1001E0000023002400250026103A28BF78C1FBD840
:1001F000520728BF30C148BF0B6070471FB50BF0D6
:100200002EFC1FBD10B510BD08F0DEFC1146FFF737
:10021000F5FF00F01DF808F0FCFC03B4FFF7F2FF57
:1002200003BC08F0FDFC0000184800686421B0FB26
:10023000F1F4204602F084FF03F068FD02F0F6F8C6
:1002400000BF00231A460121184605F077FEF8E7A3
:1002500010B586B000BF02F0D7FF03F052FC0320B8
:1002600000214FF480720A4BCDE90132CDE9031031
:100270000A200346074A0090074805F0D3FA0446CF
:1002800003F02CFD002006B010BD00005800002037
:10029000E4000020E00400202902000800BF401E06
:1002A0000028FCD170472DE9FF4104460D46164653
:1002B0001F46DDF82880F949601A8C4270D01ADC9C
:1002C000F749A4EB01008C426CD00ADCB4F1804FFA
:1002D0004ED0F4482044002852D0B0F5806F71D140
:1002E00056E0B0F5806F65D0B0F5006F6CD0B0F51A
:1002F000406FF4D170E0B0F5923F21D009DCB0F549
:10030000806F7AD0B0F5644F0AD0B0F5684F7CD1D9
:100310000EE0B0F5943F1BD0B0F5963F75D11FE0CD
:100320000121084606F034FD19208DF800006DE02B
:100330000121022006F02CFD2C208DF8000065E044
:100340000121080406F024FD18208DF800005DE06E
:100350000121192006F01CFD2C208DF8000055E02D
:100360000121880406F014FD1A208DF800004DE0EC
:100370000121084606F0FBFC1C208DF8000045E03A
:100380000121022006F0F3FC1D208DF800003DE065
:100390000121042006F0EBFC1E208DF8000035E062
:1003A00023E0FFE70121082006F0E1FC32208DF870
:1003B00000002BE00121102006F0D9FC36208DF83A
:1003C000000023E021E0FFE70121202006F0CFFC20
:1003D00037208DF8000019E00121402006F0C7FC0D
:1003E0002B208DF8000011E007E00121802006F0AD
:1003F000BEFC2C208DF8000008E00121080206F068
:10040000B6FC2D208DF8000000E000BF00BF029573
:10041000ADF804600020ADF80C00ADF8060001A9AD
:10042000204606F0CCFE0121204607F091FB012278
:100430001146204607F064FBF8B28DF8010008F081
:10044000FF008DF8020001208DF80300684606F0D9
:100450009EFD0121204606F03BFFBDE8FF81FEB571
:1004600004460D462E468D49601A8C4270D01ADC27
:100470008B49A4EB01008C426CD00ADCB4F1804FB4
:100480004ED088482044002852D0B0F5806F71D1FA
:1004900056E0B0F5806F65D0B0F5006F6CD0B0F568
:1004A000406FF4D170E0B0F5923F21D009DCB0F597
:1004B000806F7AD0B0F5644F0AD0B0F5684F7CD128
:1004C0000EE0B0F5943F1BD0B0F5963F75D11FE01C
:1004D0000121084606F05CFCA820ADF800006DE0A4
:1004E0000121022006F054FCA820ADF8000065E0D0
:1004F0000121080406F04CFCA820ADF800005DE0E6
:100500000121480406F044FCA820ADF8000055E0A5
:100510000121880406F03CFCA820ADF800004DE065
:100520000121084606F023FC5420ADF8000045E008
:100530000121022006F01BFC5420ADF800003DE034
:100540000121042006F013FC5420ADF8000035E032
:1005500023E0FFE70121082006F009FC5420ADF854
:1005600000002BE00121102006F001FC5420ADF822
:10057000000023E021E0FFE70121202006F0F7FB47
:100580005420ADF8000019E00121402006F0EFFBF7
:100590005420ADF8000011E007E00121802006F0B2
:1005A000E6FB5420ADF8000008E00121080206F047
:1005B000DEFB5420ADF8000000E000BF00BF0120CA
:1005C00001900020ADF80800ADF802006946204611
:1005D00006F0F5FD0121204606F07AFE4FF6FF7089
:1005E000811B204606F034FE03E0204606F034FE70
:1005F00086B24FF6FF708642F7DB0021204606F0F8
:1006000067FEFEBDFEB504460D4600262E46234974
:10061000601A8C4275D01ADC2149A4EB01008C428F
:100620007DD00ADCB4F1804F59D01E482044002808
:100630005ED0B0F5806F6FD165E0B0F5806F77D098
:10064000B0F5006F7ED0B0F5406FF4D183E0B0F527
:10065000923F29D009DCB0F5806F72D0B0F5644FBD
:100660000AD0B0F5684F57D10FE0B0F5943F24D0D1
:10067000B0F5963F50D129E00121084606F088FBED
:1006800044F2A010ADF8000081E00121022006F044
:100690007FFB44F2A010ADF8000078E0001C0040A1
:1006A000000C004000FCFFBF0121080406F070FBB5
:1006B00044F2A010ADF8000069E00121480406F002
:1006C00067FB44F2A010ADF8000060E0012188044F
:1006D00006F05EFB44F2A010ADF8000057E00121E7
:1006E000084606F044FB42F2D000ADF800004EE0B0
:1006F0000121022006F03BFB42F2D000ADF80000E1
:1007000045E031E00BE00121042006F030FB42F22D
:10071000D000ADF800003AE038E009E012E0012135
:10072000082006F024FB42F2D000ADF800002EE0D5
:100730000121102006F01BFB42F2D000ADF80000B2
:1007400025E01AE00121202006F011FB42F2D00042
:10075000ADF800001BE00121402006F008FB42F24A
:10076000D000ADF8000012E00121802006F0FFFA71
:1007700042F2D000ADF8000009E00121080206F0C5
:10078000F6FA42F2D000ADF8000000E000BF00BF72
:10079000012001900020ADF80800ADF80200694684
:1007A000204606F00CFD4FF6FF70811B204606F038
:1007B0004FFD0121204606F08BFD03E0204606F0A8
:1007C0004BFD06464FF6FF708642F7D300212046C8
:1007D00006F07EFDFEBD70B506460C46002500BF46
:1007E00004E00A213046FFF70DFF6D1CA542F8D347
:1007F00070BD30B58BB004460D460121022006F0D5
:10080000B6FA0121022006F07FFA022205217E4875
:1008100006F0BFF82020099002208DF82800032060
:100820008DF8290000208DF82A0001208DF82B007A
:1008300009A9754806F022F8A8B2ADF81800002002
:10084000ADF81A000794ADF8200006A96F4806F02D
:10085000B6FC6020ADF804000120ADF806000020D1
:10086000ADF8100001A9694806F077FD0821674836
:1008700006F0D0FE0121654806F00CFD0121634819
:1008800006F026FD6421614806F089FE0BB030BDFC
:1008900030B58BB004460D460121084606F067FAD4
:1008A0000121022006F030FA01220A21564806F002
:1008B00070F84FF48060099002208DF82800032022
:1008C0008DF8290000208DF82A0001208DF82B00DA
:1008D00009A94D4805F0D2FFA8B2ADF818000020D4
:1008E000ADF81A000794ADF8200006A94FF080403B
:1008F00006F065FC6020ADF804000120ADF80600AC
:100900000020ADF8100001A94FF0804006F072FD04
:100910000821C80606F08BFE0121880706F0BAFC04
:100920000121880706F0D4FC6421080706F039FE8F
:100930000BB030BD30B58BB004460D46012104200C
:1009400006F015FA0121022006F0DEF90222062146
:100950002D4806F01EF84020099002208DF828004E
:1009600003208DF8290000208DF82A0001208DF841
:100970002B0009A9244805F081FFA8B2ADF81800A2
:100980000020ADF81A000794ADF8200006A9204811
:1009900006F015FC6020ADF804000120ADF806005B
:1009A0000020ADF8100001A9194806F09DFC0821AF
:1009B000174806F026FE0121154806F06BFC0121C0
:1009C000134806F085FC0BB030BD10B52DED028B41
:1009D000B0EE408A9FED0F0AC8EE000A9FED0E1A96
:1009E0009FED0E0A00EE810AF0EE408A9FED0C0AA0
:1009F00028EE800ABCEEC00A10EE101A034806F07A
:100A0000CEFDBDEC028B10BD00040240000400408E
:100A1000000800400000C8420AD7233D8FC2753D40
:100A20000000FA4410B588B0044604940020ADF8E4
:100A30001400ADF81600ADF81800ADF81C000C203D
:100A4000ADF81A000121042006F05EF901218804A6
:100A500006F08DF907220A21FE4805F09AFF0722C9
:100A60000B21FC4805F095FF00208DF80A000120BD
:100A70008DF80B0002208DF8080040020190022042
:100A80008DF8090001A9F34805F0F8FE02208DF861
:100A900008008002019001A9EE4805F0EFFE04A9CC
:100AA000ED4807F07FF927208DF80C0001208DF824
:100AB0000F0000208DF80D008DF80E0003A806F041
:100AC00066FA012240F22551E34807F0D1FA0121EC
:100AD000E14807F0EFF908B010BD10B5044604E096
:100AE00014F8011BDD4807F026FA20780028F7D11A
:100AF00010BD7CB50446002C3CDB0A2094FBF0F1D1
:100B000000FB1140303080B2ADF806000A2094FBA3
:100B1000F0F00A2190FBF1F201FB1200303080B2BC
:100B2000ADF804000A2094FBF0F090FBF1F090FB8C
:100B3000F1F201FB1200303080B2ADF802000A2061
:100B400094FBF0F090FBF1F090FBF1F090FBF1F2F0
:100B500001FB1200303080B2ADF80000002506E045
:100B60003DF81510BD4807F0E6F9681CC5B2042D24
:100B7000F6DB3FE060420A2190FBF1F201FB12003C
:100B8000303080B2ADF80600604290FBF1F090FB8F
:100B9000F1F201FB1200303080B2ADF80400604287
:100BA00090FBF1F090FBF1F090FBF1F201FB1200F1
:100BB000303080B2ADF80200604290FBF1F090FB63
:100BC000F1F090FBF1F090FBF1F201FB12003030FC
:100BD00080B2ADF800002D21A04807F0ACF9002547
:100BE00006E03DF815109D4807F0A5F9681CC5B250
:100BF000042DF6DB7CBD10B5044604E014F8011B9F
:100C0000974807F098F920780028F7D110BD7CB5F7
:100C10000446002C3CDB0A2094FBF0F100FB114061
:100C2000303080B2ADF806000A2094FBF0F00A21C3
:100C300090FBF1F201FB1200303080B2ADF80400FD
:100C40000A2094FBF0F090FBF1F090FBF1F201FB35
:100C50001200303080B2ADF802000A2094FBF0F0B0
:100C600090FBF1F090FBF1F090FBF1F201FB120030
:100C7000303080B2ADF80000002506E03DF81510D8
:100C8000774807F058F9681CC5B2042DF6DB3FE041
:100C900060420A2190FBF1F201FB1200303080B279
:100CA000ADF80600604290FBF1F090FBF1F201FB21
:100CB0001200303080B2ADF80400604290FBF1F0D9
:100CC00090FBF1F090FBF1F201FB1200303080B2AA
:100CD000ADF80200604290FBF1F090FBF1F090FB68
:100CE000F1F090FBF1F201FB1200303080B2ADF870
:100CF00000002D215A4807F01EF9002506E03DF8B6
:100D00001510574807F017F9681CC5B2042DF6DB1B
:100D10007CBD10B5044604E014F8011B4E4807F0F2
:100D20000AF920780028F7D110BD3EB50446002C02
:100D300060DB0A2094FBF0F100FB1140303080B200
:100D4000ADF80A000A2094FBF0F00A2190FBF1F2C2
:100D500001FB1200303080B2ADF808000A2094FB8D
:100D6000F0F090FBF1F090FBF1F201FB120030305B
:100D700080B2ADF806000A2094FBF0F090FBF1F091
:100D800090FBF1F090FBF1F201FB1200303080B2E9
:100D9000ADF804000A2094FBF0F090FBF1F090FB1A
:100DA000F1F090FBF1F090FBF1F201FB120030301A
:100DB00080B2ADF802000A2094FBF0F090FBF1F055
:100DC00090FBF1F090FBF1F090FBF1F090FBF1F271
:100DD00001FB1200303080B2ADF80000002506E0C3
:100DE0003DF815101C4807F0A6F8681CC5B2052D83
:100DF000F6DB6CE060420A2190FBF1F201FB12008D
:100E0000303080B2ADF80A00604290FBF1F090FB08
:100E1000F1F201FB1200303080B2ADF80800604200
:100E200090FBF1F090FBF1F090FBF1F201FB12006E
:100E3000303080B2ADF80600604290FBF1F090FBDC
:100E4000F1F090FBF1F090FBF1F201FB1200303079
:100E500080B207E000080240004800400010014056
:100E600000440040ADF80400604290FBF1F090FBBC
:100E7000F1F090FBF1F090FBF1F090FBF1F201FB4F
:100E80001200303080B2ADF80200604290FBF1F009
:100E900090FBF1F090FBF1F090FBF1F090FBF1F0A2
:100EA00090FBF1F201FB1200303080B2ADF800008F
:100EB0002D21FB4807F03FF8002506E03DF815100E
:100EC000F74807F038F8681CC5B2052DF6DB3EBDC3
:100ED00030B52DED068B83B0B0EE408AF0EE608A1F
:100EE0009FEDF00B53EC102B51EC180B0AF04EFB5E
:100EF0004FD29FEDEE1B9FEDEF0B08F071FAB0EEB5
:100F0000409AF0EE609A53EC182B51EC190B0AF052
:100F10003FFA41EC180B002427E051EC180B0AF0C3
:100F2000A1F9054620460AF0E3F941EC1A0BB0EEB0
:100F30004A1AF0EE6A1A9FEDDF0B08F051FAB0EE94
:100F4000409AF0EE609A51EC190B0AF08BF995FB80
:100F5000F0F00A2190FBF1F201FB12003030C4F1F5
:100F6000050101AA5054601CC4B2062CD5DB002434
:100F70000CE001A8015DCA4806F0DDFF022C03D198
:100F80002E21C74806F0D7FF601CC4B2062CF0DB48
:100F900056E09FEDC61B9FEDC70B08F021FAB0EE9F
:100FA000409AF0EE609A51EC180B09F008FF41EC02
:100FB0001A0B53EC192B0AF0EBF941EC180B002437
:100FC00027E051EC180B0AF04DF9054620460AF0CF
:100FD0008FF941EC1A0BB0EE4A1AF0EE6A1A9FED47
:100FE000B50B08F0FDF9B0EE409AF0EE609A51ECC6
:100FF000190B0AF037F995FBF0F00A2190FBF1F29A
:1010000001FB12003030C4F1050101AA5054601CEC
:10101000C4B2062CD5DB2D21A14806F08CFF00249C
:101020000CE001A8015D9E4806F085FF022C03D16B
:101030002E219B4806F07FFF601CC4B2062CF0DB1B
:1010400003B0BDEC068B30BD30B52DED068B83B003
:10105000B0EE408AF0EE608A9FED920B53EC102BBD
:1010600051EC180B0AF092FA4FD29FED901B9FEDB6
:10107000910B08F0B5F9B0EE409AF0EE609A53EC9F
:10108000182B51EC190B0AF083F941EC180B0024D2
:1010900027E051EC180B0AF0E5F8054620460AF067
:1010A00027F941EC1A0BB0EE4A1AF0EE6A1A9FEDDE
:1010B000810B08F095F9B0EE409AF0EE609A51EC91
:1010C000190B0AF0CFF895FBF0F00A2190FBF1F232
:1010D00001FB12003030C4F1050101AA5054601C1C
:1010E000C4B2062CD5DB00240CE001A8015D7348D6
:1010F00006F021FF022C03D12E21704806F01BFFC1
:10110000601CC4B2062CF0DB56E09FED681B9FED1F
:10111000690B08F065F9B0EE409AF0EE609A51EC78
:10112000180B09F04CFE41EC1A0B53EC192B0AF08A
:101130002FF941EC180B002427E051EC180B0AF0B2
:1011400091F8054620460AF0D3F841EC1A0BB0EEB0
:101150004A1AF0EE6A1A9FED570B08F041F9B0EE0B
:10116000409AF0EE609A51EC190B0AF07BF895FB6F
:10117000F0F00A2190FBF1F201FB12003030C4F1D3
:10118000050101AA5054601CC4B2062CD5DB2D21E8
:101190004A4806F0D0FE00240CE001A8015D474853
:1011A00006F0C9FE022C03D12E21444806F0C3FEEE
:1011B000601CC4B2062CF0DB03B0BDEC068B30BD66
:1011C0003F48008870473E4908807047F0B50346A5
:1011D0000D461646002729460A2E03D00020087027
:1011E0002846F0BD33B9302001F8010B002008700B
:1011F0002846F6E7002B03DA2D2001F8010B5B42AD
:1012000042F210720DE093FBF2F404B937B104F12D
:10121000300001F8010B04FB123301270A2092FB76
:10122000F0F2002AEFDC002008702846D9E70FB45E
:1012300070B586B006460CA8019086E00B98007841
:101240005C281CD10B98401C0B9000786E2809D0AC
:1012500072280FD10D21304606F06DFE0B98401C10
:101260000B900BE00A21304606F065FE0B98401CFF
:101270000B9003E00B98401C0B9000BF5EE00B98B6
:101280000078252853D10B98401C0B9000786428D7
:101290002BD0732846D1019810C801901EE00000A1
:1012A00000480040000000000000000000000000B6
:1012B0000000084000000000000024400010014031
:1012C000000000202178304606F035FE00BF4021A6
:1012D000304606F023FE0028F9D0641C2078002850
:1012E000F0D10B98401C0B9020E0019820C8019091
:1012F0000A2202A92846FFF769FF02AC0BE0217819
:10130000304606F018FE00BF4021304606F006FECB
:101310000028F9D0641C20780028F0D10B98401CDC
:101320000B9003E00B98401C0B9000BF06E00B985D
:1013300010F8011B0B90304606F0FDFD00BF402168
:10134000304606F0EBFD0028F9D00B980078002815
:101350007FF474AF06B070BC5DF814FB38B501F0D3
:101360000BFF0446FE480078401CFD4908702046EB
:1013700001F006FF0823FB4AFB49FC4800F084FF0C
:10138000F948006840F28121884218D0F648006888
:10139000491C884213D0F4480068491C88420ED08A
:1013A000F1480068B0F5217F09D0EF480068891C3A
:1013B000884204D0EC480068491C884235D1E9488D
:1013C0000078562831D1E748407858282DD1E54893
:1013D00000798DF80000E34840798DF80100E1487C
:1013E00080798DF80200DF48C0798DF80300DE486F
:1013F000006840F28121884203D10121009801F068
:10140000A9F8D948006840F28221884203D102211C
:10141000009801F09FF8D448006840F28321884288
:1014200003D10321009801F095F8D149CF4807F086
:1014300072FACF49491CCD4807F06DFACC49C91C56
:10144000CA4807F068FACB49C84807F064FACA49A5
:10145000C64807F060FAC949C44807F05CFAC749B2
:101460000831C24807F057FAC549C04807F053FA97
:10147000C449BE4807F04FFAC2490831BB4807F0DB
:101480004AFA02F068FB38BD70B501F075FE0546FA
:10149000B3480078401CB2490870284601F070FE3D
:1014A0000121880706F043FB012811D1B6480068E6
:1014B00004F001F8012403E0E0B200F09EFC641C9B
:1014C000032CF9DD01F069F80121880706F040FBE3
:1014D00002F041FB70BD10B501F04EFE0446A0487D
:1014E0000078401C9E490870204601F049FE012109
:1014F000A64806F01CFB012803D10121A34806F0F1
:1015000027FB02F028FB10BD10B501F035FE0446A4
:1015100093480078401C92490870204601F030FE44
:1015200001219B4806F003FB012803D101219848C3
:1015300006F00EFB02F00FFB10BD10B501F01CFE13
:10154000044687480078401C85490870204601F011
:1015500017FE01218F4806F0EAFA012803D1012184
:101560008C4806F0F5FA02F0F6FA10BD10B501F05D
:1015700003FE04467A480078401C794908702046EA
:1015800001F0FEFD0121844806F0D1FA012803D1C3
:101590000121814806F0DCFA02F0DDFA10BD10B539
:1015A00001F0EAFD04466E480078401C6C49087062
:1015B000204601F0E5FD0121784806F0B8FA01283F
:1015C00003D10121754806F0C3FA02F0C4FA10BD38
:1015D00010B501F0D1FD044661480078401C604917
:1015E0000870204601F0CCFD40F225516C4806F011
:1015F00064FD01287DD140F22551694806F094FD33
:10160000674806F0AEFC674908706748007805280F
:1016100070D2DFE800F00311263D4B0061480078EE
:101620000D2805D160480078401C5F49087002E031
:1016300000205D49087073E05A4800780A2808D1F4
:1016400000205A49087058480078401C56490870D4
:1016500006E0544800780D2802D000205249087056
:101660005EE0504800785249504A127888544F48FA
:101670000078401C4D490870084600780C2806DBAD
:101680000020087048480078401C4749087047E02F
:10169000444800780A2805D143480078401C424954
:1016A000087002E000204049087039E03D480078A9
:1016B0000D282DD13E4890ED000A3E4880ED000AED
:1016C0003B4890ED010A3C4880ED000A384890ED17
:1016D000020A3A4880ED000A3648D0ED000AB3EE1F
:1016E0000E1A70EEC10AB0EE600A00F01BFF32481D
:1016F00001E016E010E090ED000A00F003FF2F4833
:1017000090ED000A00F006FF2D48006803F0D3FEBC
:1017100000202549087003E000202349087000BF1D
:1017200000BF02F018FA10BD10B501F025FD044607
:101730000B480078401C0A490870204601F020FD43
:1017400040F225511F4806F0B8FC012804D140F2B0
:1017500025511C4806F0E8FC02F0FDF910BD000020
:101760008D000020100000201800002000640040C0
:101770000100F0107000F030030000120800003289
:101780000300001408000034240000200000014081
:1017900000040140000C004000040040000800402C
:1017A000004800401C0000201D0000201E000020FA
:1017B000E41400200C000020040000200800002099
:1017C000280000200010014010B501F0D5FC0446AF
:1017D0001E480078401C1D490870204601F0D0FCCE
:1017E00040F225511A4806F068FC012804D140F265
:1017F0002551174806F098FC02F0ADF910BD10B560
:1018000001F0BAFC044611480078401C0F490870EA
:10181000204601F0B5FC40F225510E4806F04DFC83
:10182000012804D140F225510A4806F07DFC02F05F
:1018300092F910BD00BFFEE700BFFEE700BFFEE764
:1018400000BFFEE700BFFEE7704770478D00002035
:10185000004C0040005000401CB5FD4903C9CDE9D3
:10186000000108236A460021FA4800F0E1FC1CBD93
:1018700030B587B00446F649083103C9CDE9050102
:1018800004F540700090019000208DF808008DF85C
:10189000090008208DF80A000598C0B28DF80B00E9
:1018A0000598010A8DF80C100598010C8DF80D10A3
:1018B0000598000E8DF80E000698C1B28DF80F1035
:1018C0000698010A8DF810100698010C8DF8111079
:1018D0000698000E8DF812006946DE4806F0C6FD37
:1018E000054600BF2946DB4806F058FE0128F9D11D
:1018F00007B030BD70B588B006460024D449103119
:1019000003C9CDE9060106F5407001900290002060
:101910008DF80C008DF80D0008208DF80E0000BF2A
:101920003FE006A810F834008DF80F0006A830F844
:101930003400010A8DF8101006A850F83400010C8C
:101940008DF8111006A850F83400000E8DF8120022
:1019500006A800EBC40001798DF8131006A800EB6F
:10196000C4008088010A8DF8141006A800EBC4009A
:101970004068010C8DF8151006A800EBC400406803
:10198000000E8DF8160001A9B24806F06FFD05465D
:1019900000BF2946AF4806F001FE0128F9D1601CBE
:1019A000C4B2012CBDDB08B070BD2DE9F04194B08C
:1019B00005460E46174600243822A549183106A8C8
:1019C00007F0BAF805F540700190029000208DF8FC
:1019D0000C008DF80D0008208DF80E000D960F9765
:1019E0009D4911914942139100BF3FE006A810F8AC
:1019F00034008DF80F0006A830F83400010A8DF885
:101A0000101006A850F83400010C8DF8111006A82B
:101A100050F83400000E8DF8120006A800EBC40048
:101A200001798DF8131006A800EBC4008088010A24
:101A30008DF8141006A800EBC4004068010C8DF866
:101A4000151006A800EBC4004068000E8DF81600C3
:101A500001A9804806F00AFD804600BF41467D4846
:101A600006F09CFD0128F9D1601CC4B2072CBDDB37
:101A700014B0BDE8F081F0B589B005460F460024EA
:101A8000734B50330FCB05AE0FC605F54070009079
:101A9000019000208DF808008DF8090008208DF8CD
:101AA0000A00069700BF3FE005A810F834008DF843
:101AB0000B0005A830F83400010A8DF80C1005A8B9
:101AC00050F83400010C8DF80D1005A850F83400C2
:101AD000000E8DF80E0005A800EBC40001798DF80A
:101AE0000F1005A800EBC4008088010A8DF81010C3
:101AF00005A800EBC4004068010C8DF8111005A882
:101B000000EBC4004068000E8DF812006946514891
:101B100006F0ACFC064600BF31464E4806F03EFDDE
:101B20000128F9D1601CC4B2022CBDDB09B0F0BDA4
:101B30002DE9F043A5B080460D4616461F46002409
:101B400080224349603105A806F0F6FF08F5407091
:101B50000090019000208DF808008DF80900082001
:101B60008DF80A00109512951495169618961A96E7
:101B70001C971E9705A8C76637490A39416749422D
:101B8000C1670A9149420C9100BF3FE005A810F8D7
:101B900034008DF80B0005A830F83400010A8DF8E8
:101BA0000C1005A850F83400010C8DF80D1005A894
:101BB00050F83400000E8DF80E0005A800EBC400AC
:101BC00001798DF80F1005A800EBC4008088010A88
:101BD0008DF8101005A800EBC4004068010C8DF8CA
:101BE000111005A800EBC4004068000E8DF812002B
:101BF0006946184806F03AFC814600BF4946154838
:101C000006F0CCFC0128F9D1601C44B2102CBDDBDD
:101C100025B0BDE8F0832DE9F0418AB005460F46B6
:101C2000904600240A4BE0330FCB06AE0FC605F5F5
:101C300040700190029000208DF80C008DF80D008E
:101C400008208DF80E004FB944F25010069008E0BD
:101C500064BB00080064004000CA9A3B45F2502073
:101C60000690CDF81C8000243FE006A810F8340050
:101C70008DF80F0006A830F83400010A8DF8101016
:101C800006A850F83400010C8DF8111006A850F881
:101C90003400000E8DF8120006A800EBC400017994
:101CA0008DF8131006A800EBC4008088010A8DF897
:101CB000141006A800EBC4004068010C8DF8151044
:101CC00006A800EBC4004068000E8DF8160001A9BC
:101CD0006B4806F0CBFB064600BF3146684806F06D
:101CE0005DFC0128F9D1601CC4B2022CBDDB0AB036
:101CF000BDE8F08130B587B00446624903C9CDE93B
:101D0000050104F540700090019000208DF8080056
:101D10008DF8090008208DF80A000598C0B28DF8EA
:101D20000B000598010A8DF80C100598010C8DF830
:101D30000D100598000E8DF80E000698C1B28DF8B2
:101D40000F100698010A8DF810100698010C8DF8F6
:101D500011100698000E8DF812006946484806F0EA
:101D600085FB054600BF2946454806F017FC0128BB
:101D7000F9D107B030BD30B587B0044641490831CC
:101D800003C9CDE9050104F54070009001900020E1
:101D90008DF808008DF8090008208DF80A000598D4
:101DA000C0B28DF80B000598010A8DF80C1005984B
:101DB000010C8DF80D100598000E8DF80E00069898
:101DC000C1B28DF80F100698010A8DF81010069810
:101DD000010C8DF811100698000E8DF8120069465E
:101DE000274806F043FB054600BF2946244806F075
:101DF000D5FB0128F9D107B030BD30B587B0044616
:101E00002049103103C9CDE9050104F54070009067
:101E1000019000208DF808008DF8090008208DF849
:101E20000A000598C0B28DF80B000598010A8DF8DC
:101E30000C100598010C8DF80D100598000E8DF80A
:101E40000E000698C1B28DF80F100698010A8DF8A1
:101E500010100698010C8DF811100698000E8DF8E0
:101E600012006946064806F001FB054600BF2946F8
:101E7000034806F093FB0128F9D107B030BD0000FC
:101E80000064004054BC00082DE9F04F8BB00646BA
:101E90000F4614461D46DDF850804FF00009CA4633
:101EA000CB46B5F5807F43D012DC102D34D008DC52
:101EB000012D25D0022D26D0042D27D0082D4FD15D
:101EC00027E0202D2BD0402D2CD0802D48D12CE088
:101ED000B5F5805F38D009DCB5F5007F2BD0B5F5BE
:101EE000806F2BD0B5F5006F3AD12AE0B5F5005FD1
:101EF0002DD0B5F5804F2DD0B5F5004F30D12CE069
:101F00004FF000092DE04FF001092AE04FF00209DF
:101F100027E04FF0030924E04FF0040921E04FF0DF
:101F200005091EE04FF006091BE04FF0070918E015
:101F30004FF0080915E04FF0090912E04FF00A09C7
:101F40000FE04FF00B090CE04FF00C0909E04FF0E7
:101F50000D0906E04FF00E0903E04FF00F0900E015
:101F600000BF00BFB8F5807F4BD01ADCB8F1100F6E
:101F70003BD00CDCB8F1010F2BD0B8F1020F2BD005
:101F8000B8F1040F2BD0B8F1080F52D12AE0B8F104
:101F9000200F2DD0B8F1400F2DD0B8F1800F48D1CF
:101FA0002CE0B8F5805F38D009DCB8F5007F2BD085
:101FB000B8F5806F2BD0B8F5006F3AD12AE0B8F5AC
:101FC000005F2DD0B8F5804F2DD0B8F5004F30D13F
:101FD0002CE04FF0000A2DE04FF0010A2AE04FF00C
:101FE000020A27E04FF0030A24E04FF0040A21E040
:101FF0004FF0050A1EE04FF0060A1BE04FF0070AFB
:1020000018E04FF0080A15E04FF0090A12E04FF00F
:102010000A0A0FE04FF00B0A0CE04FF00C0A09E03F
:102020004FF00D0A06E04FF00E0A03E04FF00F0AE2
:1020300000E000BF00BFBC48304418B1B0F5806F6D
:102040001AD10CE04FF0090B00208DF8120014207B
:102050008DF804000121480604F089FE0DE04FF0E0
:10206000090B0E208DF8120040208DF8040001218C
:10207000000504F07CFE00E000BF00BFC4F30900CF
:1020800078BBA012A0F580108038092834D2DFE890
:1020900000F0050A0F14191E23292E0001210846FD
:1020A00004F032FE29E00121022004F02DFE24E09C
:1020B0000121042004F028FE1FE00121082004F083
:1020C00023FE1AE00121102004F01EFE15E001217C
:1020D000202004F019FE10E00121402004F014FE3D
:1020E0000BE009E00121802004F00EFE05E0012153
:1020F000080204F009FE00E000BF00BF5A4649464E
:10210000204604F046FC5A465146204604F041FC65
:1021100045EA0800099002208DF828008DF8290072
:1021200000208DF82A0001208DF82B0009A92046F7
:1021300004F0A4FB304606F007F800208DF81E00DE
:102140008DF81F008DF820008DF821008DF82200F9
:102150008DF823008DF81A008DF81B000B208DF8E8
:102160001C0007208DF81D007D2F22D008DC0A2FCF
:102170000FD0142F11D0322F13D0642F29D114E097
:10218000FA2F1AD0B7F5FA7F1BD0B7F57A7F20D196
:102190001BE0C820ADF818001CE06420ADF8180062
:1021A00018E02820ADF8180014E01420ADF818004D
:1021B00010E01020ADF818000CE00820ADF8180071
:1021C00008E00420ADF8180004E00220ADF8180083
:1021D00000E000BF00BF06A9304605F0CEFF00209A
:1021E0008DF8130001208DF814000020ADF80800D0
:1021F000ADF80A00ADF80C00ADF80E00ADF8100017
:1022000001208DF8150002A806F041F801208DF894
:1022100005008DF806008DF8070001A804F0B7FE50
:1022200001220221304606F031FB0BB0BDE8F08FF1
:102230002DE9F04385B081460D4690461E460024A8
:102240000095019500208DF808008DF809008DF8A3
:102250000A6000BF06E018F804100DF10B000155EC
:10226000601C84B2B442F6DB6946484606F0FEF8CC
:102270000746002400BF3946484606F08FF901287A
:10228000F9D105B0BDE8F0832DE9F04186B0804674
:102290000D4616461F4600240021404606F05EFA11
:1022A00018B9002006B0BDE8F08101AA002140461F
:1022B00006F0D1F9002405E00DF10F00005D305566
:1022C000601CC4B2BC42F7DB019828600120E9E73A
:1022D00030B585B004460020CDF80B00CDF80F00D6
:1022E00066200090019000208DF808008DF809000C
:1022F00008208DF80A000D48048000788DF80B0046
:102300000A4841788DF80C1069460748404206F0AB
:10231000ADF8054600BF29460348404206F03EF9A5
:102320000128F8D105B030BD009CFFBF200000207F
:1023300008B507E06A4600214D48006803F000F840
:1023400000F05EFBF6E708B50BE06A46002149485D
:10235000006802F0F5FF4848007800B900E000BFCF
:1023600000BFF2E71CB59DF8040001904FF4A06097
:1023700004F008FE4FF400704310404A4FF4FA7125
:1023800000903F48FFF780FD03223E49084600F0D9
:1023900059F944F620613C48FEF71DFA4FF4E1304C
:1023A000FEF740FB3948DFED3A2A9FED3A2ADFED90
:1023B0003A1A9FED3A1ADFED3A0A9FED380A00F01B
:1023C00039FC32481830F3EE0E2A9FED362AF2EE31
:1023D000041A9FED351AF7EE080A9FED340A00F053
:1023E00029FC2A483030DFED2A2A9FED312ADFED23
:1023F000311A9FED311ADFED2A0A9FED280A00F00D
:1024000019FC0320034640F2473240F2E7310090C6
:102410004FF08040FDF747FF01AA002115480068F2
:1024200003F0A4F8FF2003F05DFC1CBD10B500BF55
:10243000002002F0F3FE0F490860002002F0EEFEDB
:102440000B4908600B231D4A00211D4803F08FF93A
:1024500004460D231B4A00211B4803F088F904465B
:102460000C231A4A00211A4803F081F9044610BDD2
:1024700028000020240000202C000020000402403E
:1024800000640040404B4C00000C0040F02800204D
:102490008FC2F53C6F12033B0AD7A33C9A99193EB1
:1024A0000AD7233CCDCC4C3E0000F04200007042E5
:1024B000A69B443B0AD7233DCDCCCC3DEC1C002051
:1024C00065230008EC28002047230008EC200020AA
:1024D000312300084E4880ED000A70474C4890EDCB
:1024E000000A70474B4880ED000A7047494890ED5C
:1024F000000A7047484880ED000A7047464890ED52
:10250000000A7047454880ED000A7047434890ED47
:10251000000A7047424880ED000A7047404890ED3D
:10252000000A70473F4880ED000A70473D4890ED33
:10253000000A70473C4880ED000A70473A4890ED29
:10254000000A7047394880ED000A7047374890ED1F
:10255000000A7047364A42F8210070470146344865
:1025600050F82100704733490860704731480068CF
:1025700070473149086070472F480068704700B5C0
:10258000FFF7ACFFF0EE400AFFF7D4FFFFF7AEFF16
:10259000F0EE400AFFF7D6FF00BD70B500BF00BFE8
:1025A00000BF00BF00BFFFF799FFBDEEC00A10EEED
:1025B000103AFFF79BFFBDEEC00A10EE104A1F480D
:1025C0000068181A00EB800045001D480068201ABA
:1025D00000EB800046002846FFF7C5FF3046FFF7B6
:1025E000C8FF00220CE01549501C51F8200041F8AA
:1025F00022001349501C51F8200041F82200521CBF
:10260000092AF0DB0D4843620D48446270BD0000AA
:102610003C0000204000002044000020300000204A
:102620003400002038000020480000204C0000202A
:102630003829002050000020540000205429002098
:102640007C2900202DE9F04106460F461446FFF78D
:1026500003F9002503E0E8B2FFF70AF96D1CA54273
:10266000F9DD002505E0E8B23A463146FFF79DF96D
:102670006D1CA542F7DD0020BDE8F08110B52DED01
:10268000068BB0EE408AF0EE608A9FEDCF0B53ECE4
:10269000102B51EC180B08F08DFC41EC1A0B9FED40
:1026A000CC0B53EC102B08F073FE41EC190BB0EE81
:1026B000490AF0EE690A07F0AFFCBDEC068B10BDCD
:1026C00010B52DED068BB0EE408AF0EE608A9FEDDE
:1026D000BE0B53EC102B51EC180B08F06BFC41ECCB
:1026E0001A0B9FEDBB0B53EC102B08F051FE41EC85
:1026F000190BB0EE490AF0EE690A06F00DFEBDECCA
:10270000068B10BD10B52DED068BB0EE408AF0EEB5
:10271000608A9FEDAD0B53EC102B51EC180B08F0B9
:1027200049FC41EC1A0B9FEDAA0B53EC102B08F05F
:102730002FFE41EC190BB0EE490AF0EE690A07F0E2
:10274000CFFCBDEC068B10BD10B52DED048BB0EEAB
:10275000408AF0EE608A9FEDA00B53EC102B51ECF9
:10276000180B08F013FF05D29FED9B0BB0EE408ACB
:10277000F0EE608A9FED9A0B53EC102B51EC180B86
:1027800008F0CAFD05D29FED960BB0EE408AF0EE40
:10279000608AB0EE480AF0EE680A06F061FAB0EE20
:1027A000409AF0EE609A9FED900B53EC102B51EC99
:1027B000190B08F0EDFD41EC100BBDEC048B10BDC6
:1027C00010B52DED048BB0EE408AF0EE608A9FEDDF
:1027D000820B53EC102B51EC180B08F0D7FE05D2EE
:1027E0009FED7D0BB0EE408AF0EE608A9FED7C0B92
:1027F00053EC102B51EC180B08F08EFD05D29FED19
:10280000780BB0EE408AF0EE608AB0EE480AF0EE47
:10281000680A06F0D1FBB0EE409AF0EE609A9FEDA8
:10282000720B53EC102B51EC190B08F0B1FD41EC7D
:10283000100BBDEC048B10BD10B52DED068BB0EE6A
:10284000408A9FED6B0A28EE000ADFED6A0A20EE4F
:10285000200AF2EE0C0A80EE201A11EE104A2046F1
:1028600009F08CF841EC1A0B9FED630B53EC102B25
:1028700008F0A0FB41EC190B08F0F4FCBDEC068B52
:1028800010BD10B52DED0E8BB0EE408AF0EE608AD3
:1028900018EE900A09F072F841EC1E0BB0EE4E0AE9
:1028A000F0EE6E0AFFF70CFFB0EE40CAF0EE60CA21
:1028B00018EE100A09F062F841EC1D0B53EC1C2BCA
:1028C00008F066FD41EC1A0BFFF738FE10EE104AD7
:1028D000204609F053F841EC1B0B53EC1A2B08F07F
:1028E00063FF41EC190B08F077FA00EE100ABDEC1B
:1028F0000E8B10BD10B52DED0E8BB0EE408AF0EEB4
:10290000608A18EE900A09F039F841EC1E0BB0EE1F
:102910004E0AF0EE6E0AFFF7B1FEB0EE40CAF0EEDE
:1029200060CA18EE100A09F029F841EC1D0B53ECAF
:102930001C2B08F02DFD41EC1A0BFFF707FE10EEE3
:10294000104A204609F01AF841EC1B0B53EC1A2BE5
:1029500008F074FA41EC190B08F03EFA00EE100A88
:10296000BDEC0E8B10BD10B52DED048BB0EE408A82
:10297000F0EE608AF0EE680AB0EE480AFFF7BAFFA0
:10298000B0EE409AFFF7B2FD79EE400A80EE880A79
:10299000BDEC048B10BD10B52DED048BB0EE408A5C
:1029A000F0EE608AFFF79AFDB0EE409AF0EE680A0A
:1029B000B0EE480AFFF765FF79EE400A80EE880A1C
:1029C000BDEC048B10BD00000000000000806640DC
:1029D0004AD8124DFB210940000000000000F03FE2
:1029E000000000000000F0BFAA9F9622DCA54C402A
:1029F0000000FA4400809543919C4CDC2A7D7B408A
:102A000030B52DED108B83B09FED800AF0EE408A3B
:102A10009FED7E0A8DED020AFFF778FD10EE104A59
:102A2000FFF77CFD10EE105AFFF780FDB0EE408AF4
:102A30009FED770AB4EEC08AF1EE10FA05DD9FED46
:102A4000750A38EE400AB0EE408A9FED730AB4EE84
:102A5000C08AF1EE10FA05D29FED6E0A38EE000A38
:102A6000B0EE408AB0EE480AFFF744FD9FED6B0BD5
:102A7000FFF726FEB0EE40DAF0EE60DA18EE100A4C
:102A800008F07CFF41EC1F0BB0EE4F0AF0EE6F0A2E
:102A9000FFF716FEB0EE40EAF0EE60EA53EC1D2BB5
:102AA00051EC1E0B08F080FE41EC1C0B9FED5D0B02
:102AB00053EC102B08F06CFC41EC1A0B9FED5B0BF8
:102AC000FFF7DCFDB0EE40EAF0EE60EA284608F0E1
:102AD00055FF41EC1F0B53EC1E2B08F059FC41EC49
:102AE0001C0B9FED520BFFF7EBFDB0EE40EAF0EE52
:102AF00060EA204608F042FF41EC1F0B53EC1E2B0E
:102B000008F046FC41EC1D0B53EC1C2B08F04CFE6E
:102B100041EC1B0B53EC1A2B08F090F941EC190B0C
:102B200008F05AF908EE900A9FED3C0BFFF7A6FD5E
:102B3000B0EE40DAF0EE60DA18EE100A08F01EFF90
:102B400041EC1F0BB0EE4F0AF0EE6F0AFFF796FD57
:102B5000B0EE40EAF0EE60EA53EC1D2B51EC1E0B98
:102B600008F022FE41EC1C0B9FED2E0B53EC102BBA
:102B700008F00EFC41EC1A0B9FED2C0BFFF7A0FDAB
:102B8000B0EE40EAF0EE60EA284608F0F7FE41ECCD
:102B90001F0B53EC1E2B08F0FBFB41EC1D0B9FEDB4
:102BA000230BFFF76BFDB0EE40EAF0EE60EA204643
:102BB00008F0E4FE41EC1F0B53EC1E2B08F0E8FB81
:102BC00053EC1D2BCDE900019DED000B51EC100BDA
:102BD00008F034F941EC1C0B08F0F1F841EC1B0B48
:102BE00053EC1A2B08F0E0FD41EC190B08F0F4F857
:102BF0000290B0EE680AFFF76DFC9DED020AFFF748
:102C000071FC03B0BDEC108B30BD00000000000073
:102C1000000034430000B443000034C3000000004F
:102C200000003EC0000000000060624000000000A4
:102C300000004E4080ED000A80ED010A80ED020A9E
:102C4000C0ED031A80ED042AC0ED052A704700008C
:102C50000CB50020019000907648006840F4803068
:102C60007449086000BF7348006800F400300090A9
:102C70000198401C0190009818B90198B0F5A06F18
:102C8000F1D16C48006800F4003010B101200090D0
:102C900001E0002000900098012846D165484030AE
:102CA000006840F080506349403108606248006825
:102CB00040F48040604908605E48083000685D4923
:102CC000083108600846006840F400400860084683
:102CD000006840F4A05008605848091F0860081FA9
:102CE000006840F08070091F086000BF514800680C
:102CF00000F000700028F9D040F2056050490860EB
:102D00004C480830006820F003004A490831086048
:102D10000846006840F00200086000BF45480830DF
:102D2000006800F00C000828F8D10CBD10B545482B
:102D3000006840F47000434908603E48006840F075
:102D400001003C49086000203A49083108603948D0
:102D500000683D490840374908603C48091D086043
:102D6000081F006820F48020091F086000203149F6
:102D70000C310860FFF76CFF4FF00060314980397B
:102D8000086010BD70B5002000220223002402213B
:102D9000284D08352D6805F00C0020B1042806D018
:102DA000082834D107E02A4D2A4E356033E02A4DF9
:102DB000284E35602FE01F4D2D1D2D68C5F3805422
:102DC0001C4D2D1D2D6805F03F0154B1224DB5FB62
:102DD000F1F5184E361D3668C6F3881605FB06F267
:102DE00009E01B4DB5FBF1F5124E361D3668C6F3F2
:102DF000881605FB06F20F4D2D1D2D68C5F3014504
:102E00006D1C6B00B2FBF3F5124E356003E0104D04
:102E1000104E356000BF00BF064D08352D68C5F364
:102E200003150E4E705D0B4D2D68C540094E356083
:102E300070BD000000380240007000400854400798
:102E4000003C024088ED00E0FFFFF6FE1030002459
:102E50000024F4005800002000127A005C000020DA
:102E60000C48016841F4700101600B4880470B4831
:102E70000047FEE7FEE7FEE7FEE7FEE7FEE7FEE7C8
:102E8000FEE7FEE7FEE7000005480649064A074B55
:102E90007047000088ED00E02D2D00088901000832
:102EA00090470020904D002090490020904900203C
:102EB000AA48802102E0491E002204C00029FAD15C
:102EC000A74AA84B1A601A46126822F007021A6035
:102ED0000022A54B1A807047704710B50446204663
:102EE00003F055FC10BD10B50446204603F050FC1D
:102EF00010BD10B503F04DFC10BD10B503F04BFC38
:102F000010BD70B5044610460026051F28462E60E9
:102F1000051F28462E604FF01536051F28462E60E7
:102F20004FF01436051F28462E604FF01336051F4C
:102F300028462E604FF01236051F28462E604FF0AF
:102F40001136051F28462E604FF01036051F284603
:102F50002E604FF00936051F28462E604FF00836C8
:102F6000051F28462E604FF00736051F28462E60A5
:102F70004FF00636051F28462E604FF00536051F18
:102F800028462E604FF00436051F28462E604FF06D
:102F90000336051F28462E604FF00236051F2846CF
:102FA0002E607610051F28462E600026051F284635
:102FB0002E604FF08076051F28462E60051F28469C
:102FC0002C606A4E051F28462E604FF01236051FF2
:102FD00028462E604FF00336051F28462E604FF01E
:102FE0000236051F28462E607610051F28462E60E3
:102FF000051F284629604FF03136051F28462E60F0
:103000004FF03036051F28462E604FF02936051F39
:1030100028462E604FF02836051F28462E604FF0B8
:103020002736051F28462E604FF02636051F2846F6
:103030002E604FF02536051F28462E604FF02436AF
:10304000051F28462E604FF02336051F28462E60A8
:103050004FF02236051F28462E604FF02136051FFF
:1030600028462E604FF02036051F28462E604FF070
:103070001936051F28462E604FF01836051F2846C2
:103080002E604FF01736051F28462E604FF016367B
:10309000051F28462E604FF01136051F28462E606A
:1030A0004FF01036051F28462E604FF00936051FD9
:1030B00028462E604FF00836051F28462E604FF038
:1030C0000736051F28462E604FF00636051F284696
:1030D0002E604FF00536051F28462E604FF004364F
:1030E000051F28462E6070BD10B503F055FB10BDBE
:1030F00010B50446204603F050FB10BD10B503F098
:103100004DFB19480088401C174908800846008874
:103110000A2803D30020088003F054FA10BD10B52C
:1031200000F02AF8044612480078401C1049087044
:10313000204600F025F800F008FE00F00CFD10BD60
:10314000411E4FF0E0225161FF220A49CA7200215C
:103150004FF0E0229161072111617047A4290020FE
:10316000A42B00206C00002070000020BF5E00082F
:103170008D00002018ED00E0EFF3108072B670476C
:1031800080F31088704722484FF0FF010170002043
:1031900080F309881F48012101701F484FF08051BA
:1031A000016062B6FEE71C484FF080510160704735
:1031B00019484FF080510160704772B6EFF30980F3
:1031C00040B1403880EC108A203880E8F00F134975
:1031D0000968086000B5124880475DF804EB1148A3
:1031E00011490A7802700D4810490A680260106897
:1031F00090E8F00F203090EC108A403080F309887E
:103200004EF0040E62B6704772B6704762B67047F1
:1032100022ED00E09A00002004ED00E0A000002074
:10322000E93000088F00002090000020A800002056
:103230001D481E481E481F481F4820482048214856
:103240002148224822482348234824482448254826
:1032500025482648264827482748284828482948F6
:1032600029482A482A482B482B482C482C482D48C6
:103270002D482E482E482F482F4830483048314896
:103280003148324832483348334834483448354866
:103290003548364836483748374838483848394836
:1032A000394800BF704700006CBC000870BC0008C3
:1032B00076BC000878BC000874BC00087ABC000822
:1032C0007CBC00087EBC000880BC000882BC0008F2
:1032D00084BC000886BC000888BC00088ABC0008C2
:1032E0008CBC00088EBC000890BC000892BC000892
:1032F00094BC000896BC000898BC00089ABC000862
:103300009CBC00089EBC0008A0BC0008A2BC000831
:10331000A4BC0008A6BC0008A8BC0008AABC000801
:10332000ACBC0008AEBC0008B0BC0008B2BC0008D1
:10333000B4BC0008B6BC0008B8BC0008BABC0008A1
:10334000BCBC0008BEBC0008C2BC0008C4BC00086D
:10335000C6BC0008C8BC00086C420020EC46002037
:10336000CCBC0008CEBC0008D0BC0008D2BC000811
:10337000D4BC0008D6BC0008D8BC0008DABC0008E1
:10338000DCBC0008CABC0008DEBC00080146002006
:1033900002E0491C421CD0B20A78002AF9D17047D9
:1033A0002DE9F04105460E461446002725B90420B4
:1033B00020700020BDE8F0811EB90C202070002094
:1033C000F8E7F748007818B1112020700020F1E7E5
:1033D0002878012808D0022807D0032802D0042822
:1033E00004D100E000BF00BF00BF03E00120207057
:1033F0000020DFE700BFFFF7BFFE074668693060C7
:103400003068FFF7C3FF80463846FFF7B9FE00205B
:1034100020704046CEE72DE9F04105460E461446A1
:1034200000271DB904202070BDE8F08116B90C20DA
:103430002070F9E7DA48007810B112202070F3E725
:103440002878012808D0022807D0032802D00428B1
:1034500004D100E000BF00BF00BF02E001202070E7
:10346000E2E700BFFFF788FE07466E613846FFF7C8
:1034700087FE0020207000BFD6E7F0B5024612F8A4
:10348000384F95785678383A0B4618680FE000F1B7
:103490000B073F5DB74300F10B0C0CF80470674657
:1034A0003F5D17B9877AAF4387721B1D18680028E4
:1034B000EDD1F0BDBB49BC4A1278885CBB49095CC0
:1034C000B84A515C01EBC001B94A1170704710B5A0
:1034D0000024FFF751FE0446B1480078F8B9B5481A
:1034E0000078E0B9FFF7E6FFB348B149097850F832
:1034F0002100B2490860AE480078B1490978884295
:103500000DD0AE480068C06B401CAC490968C86368
:10351000AC480068401CAB490860FFF744FE2046F9
:10352000FFF72EFE10BD70B501460024A64D2D6894
:10353000EC61A54C246821620B4618681BE0A24C84
:10354000246894F8385000F10B04645D9E4D2D689A
:1035500095F839502C439C4D2D6895F8386000F152
:103560000B05AC55847A984D2D6895F83A502C434C
:1035700084721B1D18680028E1D1934C246894F8CC
:1035800038208A4CA45C904D2D6895F83950AC4396
:10359000864DAC542C46A45C44B98B4C246894F8FA
:1035A0003A50814C2478AC437F4D2C7070BD2DE98E
:1035B000FF4F83B081460E461546109F00200090B5
:1035C000B9F1000F05D104203870002007B0BDE824
:1035D000F08FD9F8000018B9042038700020F5E702
:1035E0001EB9042038700020F0E71DB9042038709F
:1035F0000020EBE700203060CA46DAF8004015E012
:103600002078062807D2DFE800F006040503070843
:1036100007E006E005E000BF00BF01203870002091
:10362000D4E700BF0AF1040ADAF80040002CE7D121
:103630005B48007818B1022038700020C6E75D486A
:10364000007818B10D2038700020BFE7FFF794FD17
:1036500000900020029083460190CA46DAF80040AC
:1036600066E02078062853D2DFE800F052172A03DC
:103670005354208960B12089401E208110C601204A
:103680000290002001C50BF101001FFA80FB03E04E
:10369000019840F00100019045E0606858B1606811
:1036A00001C50020606010C6012002900BF10100EE
:1036B0001FFA80FB03E0019840F00200019032E025
:1036C000D4F80480B8F81600E8B1D8F81010081D36
:1036D000C8F81000086801C5D8F80810D8F810001C
:1036E000884203D1D8F80400C8F81000B8F81600D2
:1036F000401EA8F8160010C6012002900BF1010030
:103700001FFA80FB03E0019840F0040001900AE0FA
:1037100000BF00BF0098FFF733FD0020306001209C
:103720003870584652E700BF0AF1040ADAF8004040
:10373000002C96D10298012808D100203060009812
:10374000FFF71EFD0020387058463FE71E4800680E
:1037500090F83400019941F0800108431A49096842
:1037600081F8340000201849096881F835001649AD
:103770000698096808634846FFF7D5FE0098FFF7EA
:10378000FFFCFFF7A4FEFFF7F7FC00900E4800686F
:1037900090F83500D0B1012831D002282ED116E0A2
:1037A0008D000020E0BC0008910000209200002065
:1037B000900000208E00002094350020A8000020FA
:1037C0008F00002074000020A000002000BFFE48F1
:1037D0000068C4693CB110C6002030600BF10100E4
:1037E0001FFA80FB09E00120F749096881F83500DC
:1037F0004946F5480068FFF740FE06E000BF49462D
:10380000F1480068FFF739FE00BF00BFEE480068CE
:1038100090F8350020B1012828D0022825D11FE0DA
:10382000207806280DD2DFE800F00C0607030D0E05
:10383000002001C510E000BFE3480068406A01C5F0
:103840000AE000BF00BF0098FFF79AFC002030603C
:10385000012038705846B9E600BF002038700AE0F1
:10386000002001C50E20387005E000BF002001C512
:103870000A20387000BF00BF0020D349096881F8D2
:103880003400D149096881F83500CF490968C86119
:10389000CD4909680862CC49096848620098FFF779
:1038A0006FFC584692E67CB5002514E06946284630
:1038B00002F0CDF9064666B9C44850F8254044B137
:1038C000012C06D0D4E9020100EB8100A06401982C
:1038D000E064681CC5B23F2DE8D97CBD002400BF60
:1038E00002E0142002F0F8FAB94800780028F8D075
:1038F000B84800686421B0FBF1F0B649086008469A
:10390000006828B90020B4490870FF2002F0EAF9E5
:1039100000BFFFF731FC0446B0480068B0490860BA
:103920000020AE4908602046FFF72AFCAC4800683A
:10393000A8490968B0FBF1F0C0F16400A64908701D
:10394000FFF7DBFAFFF7AFFF0A2002F0C5FAE0E766
:1039500000B587B0032000218022A24BCDE90132BF
:10396000CDE903104FF6FE703E239F4A0090AFF260
:10397000930001F057FF06AA9CA13E2002F0DAF85E
:1039800007B000BD002400BF00BFFFF7F5FB0446F1
:1039900092480068401C914908602046FFF7F0FB00
:1039A000FFF7A7FAF1E700B587B0032000218022D6
:1039B000924BCDE90132CDE903104FF6FF703F2362
:1039C0008F4A0090AFF2430001F02CFF06AA8DA1B0
:1039D0003F2002F0AFF807B000BD04E0002200F87D
:1039E000012B4A1E91B20029F8D1704770B54FF4EF
:1039F000B4618848FFF7F1FF002411E0601C85B234
:103A000004EB4400834901EBC00305EB450001EBE7
:103A1000C006002018705E607FA05861601C84B2F0
:103A20003B2CEBD304EB44007A4901EBC0030020AC
:103A30001870586078A0586108467849086070BDD1
:103A400070B54FF430617648FFF7C7FF4FF48071CF
:103A50005E48FFF7C2FF002413E0601CC5B204EB10
:103A6000440000EBC4006E4901EBC00305EB4500C8
:103A700000EBC50001EBC0065E6167A01865601C25
:103A8000C4B21F2CE9D304EB440000EBC40064492A
:103A900001EBC003002058615FA018650020614958
:103AA00008605F486049086070BD00215F4A11707E
:103AB000002004E000215E4A1154411CC8B20828CD
:103AC000F8D300215B4A11705B4A11705B4A1160A8
:103AD0003D4A1160704700205949086059490870F3
:103AE000594908705949087059490870594908607E
:103AF0003A4908603A490860364908603449087014
:103B0000704710B5FFF7D4F9FFF7E5FFFFF7CDFFDA
:103B1000FFF796FFFFF76AFF00F0E4FE01F00FF8F1
:103B200001F03BFBFFF73FFFFFF712FF02F0A4FDA0
:103B3000FFF7D2F9FFF77CFB10BD4548007801285C
:103B400008D140480078FF2804D23E480078401C45
:103B50003C490870704710B500243D4800780128A2
:103B600030D1FFF709FB04463648007820B13548CC
:103B70000078401E3349087032480078F8B932485E
:103B80000078E0B9FFF796FC10482B49097850F807
:103B900021002A4908602848007826490978884287
:103BA0000DD026480068C06B401C24490968C863D2
:103BB00028480068401C27490860FFF7F9FA2046AA
:103BC000FFF7DEFA10BD0000A000002094350020B1
:103BD0008C00002084000020800000209C00002039
:103BE00088000020943100209033002075432F4F2F
:103BF000532D494920537461740000009433002010
:103C00009035002075432F4F532D49492049646C4E
:103C100065000000A42B00203F0000007800002079
:103C200094360020AC000020A40000209100002069
:103C3000920000208F00002090000020A8000020AB
:103C4000BC0000208D0000208E0000209B00002082
:103C50009A0000207400002010B50024FE4800786F
:103C6000012811D1FFF788FA0446FC48007840B9D2
:103C7000FB480078FF2804D2F9480078401CF84936
:103C800008702046FFF77CFA10BD10B50024F248FA
:103C90000078012821D1FFF76FFA0446F048007838
:103CA000C0B1EF480078401EED4908700846007822
:103CB00060B9EA48007828B92046FFF761FAFFF7B3
:103CC00006FC0AE02046FFF75BFA06E02046FFF715
:103CD00057FA02E02046FFF753FA10BD10B5DE4850
:103CE000007890B9FFF7E6FBDE480078DE490870FF
:103CF000DE48DC49097850F82100DD4908600846B3
:103D00000068DC490860FFF73EFA10BD10B50024DA
:103D1000022002F0E1F8FFF72FFA04460020D6490E
:103D200008602046FFF72CFA0A2002F0D5F8FFF7CA
:103D300023FA0446D0480068D04908600120D049E1
:103D400008702046FFF71CFA10BD70B50026FFF77B
:103D5000D5F9FFF711FA0646CA480068401CC94960
:103D600008603046FFF70CFABB480078012853D1B1
:103D7000C548007820B1012804D0022809D103E009
:103D800001250BE0002509E001250120BE4908704E
:103D900004E001250020BC49087000BF00BF05B940
:103DA00070BDBA48046833E0FFF7E6F90646206BB9
:103DB00050B3206B401E2063206B28BB94F8340066
:103DC00000F0370040B114F8340F00F0C800207044
:103DD00001206070343C02E0002084F8350094F843
:103DE000340000F0080078B93834A078A849097880
:103DF0000843A74908702078A649085C6178084301
:103E000014F83819A34A505464693046FFF7B8F9DA
:103E100094F836003F28C7D100BFC1E740F2231015
:103E20007047704710B590F8382001F10B039B5C88
:103E300090F83940A34301F10B04A35423469B5C43
:103E400023B98B7A90F83A40A3438B7210BD2DE9C9
:103E5000F04F05460F4690469946A87A8E490E5C6B
:103E600005F10B00805D11F800B00BEBC60000F00F
:103E7000FF0A7E4850F82A4000202434E060276082
:103E8000207C20EA0800207484F81190207C243CD7
:103E900000F0080068B994F83A007D4909780843B1
:103EA0007B4908707B48805D94F839100843794954
:103EB000885529462046FFF7B5FF206A20B12046E5
:103EC000216AFFF7DAFAE5615046BDE8F08F10B5D8
:103ED000684A1268D061674A126892F8383000F177
:103EE0000B02D25C634B1B6893F839301A43614B69
:103EF0001B6893F8384000F10B031A55827A5D4B2A
:103F00001B6893F83A301A4382725A4A126892F840
:103F10003810604A525C574B1B6893F839309A430B
:103F20005C4B5A541A46525C42B9524A126892F893
:103F30003A30574A12789A43554B1A7010BD0146D1
:103F400000228A72002005E0002301F10B021354C5
:103F5000421CD0B20828F7D3704705E011F8013BA6
:103F600000F8013B531E9AB2002AF7D170472DE9A1
:103F7000F84F05460F4690469946DDE90AAB00200A
:103F80000090FFF7F9F8009044480468002C61D0D5
:103F90001C3454F8080C414908600098FFF7F0F809
:103FA00044F81C7CA576002020766076606144F899
:103FB00018BC44F810AC44F8148C0C9824F80C0C81
:103FC00024F80A9C0020E077E810207705F007002D
:103FD000E076217F01208840A077E17E01208840A3
:103FE0006077002020606060E060A0602062A062D6
:103FF0006062E0622063AFF2E03060631C3C002648
:1040000006E0002104F1540040F82610701CC6B2EE
:10401000002EF6D02046FFF76BF82046FEF75DFF36
:10402000FFF7AAF80090114840F8254017480068AB
:1040300060610020A0611548006810B11348006855
:104040008461124804603834A07811490978084323
:104050000F4925E039E000009A0000208D00002083
:104060008E000020900000208F000020943500205A
:10407000A8000020A00000209C0000208400002058
:104080008C000020BC000020B0000020AC0000200C
:104090009100002092000020E0BC0008A400002055
:1040A000087020780B49085C6178084314F83819C7
:1040B000084A505408480078401C07490870009886
:1040C000FFF75EF80020BDE8F88F0098FFF758F87A
:1040D0004220F8E7920000209B0000202DE9F05FCD
:1040E00004460F4691461E464FF0000B24B96E2041
:1040F00030700020BDE8F09F2078052803D0012013
:1041000030700020F6E709F0800ABAF1000F04D001
:1041100029F080094FF0010801E04FF0000800206D
:104120003070FFF729F88346B9F1000F2CD0B9F1B0
:10413000010F3BD0B9F1020F03D0B9F1030F46D103
:1041400011E0208900EA0705BD4206D1B8F1010F50
:1041500005D12089A843208101E0702030705846A5
:10416000FFF70EF83AE0208900EA070535B1B8F10B
:10417000010F05D12089A843208101E07020307013
:104180005846FEF7FDFF29E0208927EA0005BD42D9
:1041900006D1B8F1010F05D120892843208101E023
:1041A000702030705846FEF7EBFF17E0208927EAB1
:1041B000000535B1B8F1010F05D1208928432081D0
:1041C00001E0702030705846FEF7DAFF06E05846EE
:1041D000FEF7D6FF00256F20307000BF00BF2846D5
:1041E00088E72DE9F04106460D460027F74800789C
:1041F00020B1102028700020BDE8F081FEF7BCFF40
:104200000746F348046884B100684068F0490860D4
:1042100005202070268100206060EEA0E060384616
:10422000FEF7AEFF0020287004E03846FEF7A8FF36
:10423000722028702046DFE730B501464A680868DA
:104240002AB9CC68606028B10025456002E01060A2
:1042500000B142608B6800259D6230BDF0B5064616
:104260000F46B46800202C3460602780207A00F06C
:10427000DF00207200206072207A2C3C88B938342C
:10428000A078D54909780843D34908702078D349E4
:10429000085C6178084314F83819D04A5054012555
:1042A00000E000253046FFF7C7FF2846F0BD2DE9A6
:1042B000F0470446894615464FF0000A24B96E209F
:1042C00028702046BDE8F087C048007818B10F205C
:1042D00028702046F6E72078052803D001202870B2
:1042E0002046EFE7FEF748FF8246606808B10127E5
:1042F00000E00027B9F1000F03D0B9F1010F3CD164
:1043000019E08FB9B3A0E06000202070B0480068C9
:10431000606000202081AE4804605046FEF730FF08
:1043200000202870002605E05046FEF729FF4920AE
:104330002870264628E0D4F8048005E00021404695
:10434000FFF78CFFD8F80080B8F1000FF6D1A1A0DC
:10435000E060002020709E4800686060002020819E
:104360009B4804605046FEF70BFF012F01D1FFF779
:10437000AEF800202870002606E05046FEF700FF49
:1043800007202870264600BF00BF30469AE72DE977
:10439000F04105460E461446002725B96E202070D0
:1043A0000020BDE8F0811EB90C2020700020F8E745
:1043B0008648007818B1112020700020F1E7FEF740
:1043C000DBFE07462878052806D03846FEF7D8FEDB
:1043D000012020700020E4E7E86830603068FEF7D4
:1043E000D5FF80463846FEF7CBFE002020704046C1
:1043F000D7E72DE9F04105460E46144600271DB9C2
:104400006E202070BDE8F08116B90C202070F9E70D
:104410006E48007810B112202070F3E7FEF7ACFE72
:1044200007462878052805D03846FEF7A9FE012062
:104430002070E7E7EE603846FEF7A2FE002020700D
:1044400000BFDFE7F0B51446059E654F3F6897F85B
:10445000347047F02007DFF888C1DCF800C08CF822
:1044600034700027DFF878C1DCF800C08CF83570B4
:104470005B4F3F683E635A4F3F68B9620C828B7452
:10448000574F3F688F6047680F6000274F60C860D4
:10449000456805B169604160514F3F6897F8382021
:1044A0004E4FBF5CDFF838C1DCF800C09CF839C063
:1044B00027EA0C07DFF824C10CF802706746BF5CDE
:1044C0005FB9474F3F6897F83AC0434F3F7827EAB4
:1044D0000C07DFF804C18CF80070F0BD2DE9F04F37
:1044E00089B005460F4691469A46129E00200290DA
:1044F0002DB96E203070002009B0BDE8F08F334830
:10450000007818B1022030700020F5E735480078B7
:1045100018B10D2030700020EEE72878052803D070
:10452000012030700020E7E709F0800BBBF1000F9D
:1045300004D009F07F094FF0010801E04FF00008B6
:10454000FEF71AFE0290B9F1000F59D0B9F1010F30
:1045500079D0B9F1020F03D0B9F1030F72D120E085
:10456000288900EA0704BC420FD1B8F1010F02D13B
:104570002889A04328811A48006884850298FEF79C
:10458000FFFD002030702046B6E74B463A4604A9AE
:104590002846CDF800A0FFF755FF0298FEF7F0FD82
:1045A00079E0288900EA0704F4B1B8F1010F02D1DB
:1045B0002889A04328810A48006884850298FEF76C
:1045C000DFFD00203070204696E700008D000020BF
:1045D0007C0000203F00000091000020920000209D
:1045E000A00000208E0000204B463A4604A9284631
:1045F000CDF800A0FFF726FF0298FEF7C1FD4AE0C4
:10460000288927EA0004BC420FD1B8F1010F02D17A
:10461000288920432881C748006884850298FEF7CE
:10462000AFFD00203070204666E74B463A4604A9AD
:104630002846CDF800A0FFF705FF0298FEF7A0FD81
:1046400029E000E01FE0288927EA00047CB1B8F1E6
:10465000010F02D1288920432881B648006884854B
:104660000298FEF78DFD00203070204644E74B464F
:104670003A4604A92846CDF800A0FFF7E3FE0298C9
:10468000FEF77EFD07E00298FEF77AFD00246F201A
:104690003070204630E700BFFEF719FFFEF76CFDD3
:1046A0000290A448006890F8350020B3A148006843
:1046B00090F83500039000209E49096881F8350084
:1046C00004A8FFF7B9FD00209A49096881F8340071
:1046D0000298FEF755FD00240398012805D0022812
:1046E00002D10E20307003E000BF0A20307000BFFE
:1046F00000BF204600E78F480068848DB8F1010FA5
:104700001ED1B9F1000F0ED0B9F1010F0CD0B9F1E3
:10471000020F03D0B9F1030F0AD100E000BF2889CE
:10472000A04328810BE000BF28892043288106E0B0
:104730000298FEF725FD6F2030700020DCE600BFF8
:104740000298FEF71DFD002030702046D4E670B5BB
:104750000025FEF711FD054676480068848D284641
:10476000FEF70EFD204670BD2DE9FC5F044689462C
:1047700092461E460020009024B96E203070002022
:10478000BDE8FC9F2078052803D001203070002070
:10479000F6E7FEF7F1FC0090BAF1000F03D0BAF192
:1047A000010F0AD104E0208920EA090020810BE0F2
:1047B000208940EA0900208106E00098FEF7E0FC2D
:1047C000712030700020DBE700BF4FF0000B656800
:1047D00055E0A87C40B3012838D0022802D0032835
:1047E00044D111E02089298A00EA0107288AB842C9
:1047F00009D139462846FFF731FD8046B8F1010F4F
:1048000001D14FF0010B38E02089298A00EA010725
:104810004FB139462846FFF721FD8046B8F1010F18
:1048200001D14FF0010B28E0288A218920EA0107F5
:10483000288AB84209D139462846FFF70FFD80463D
:10484000B8F1010F01D14FF0010B16E0288A218940
:1048500020EA01074FB139462846FFF7FFFC8046A2
:10486000B8F1010F01D14FF0010B06E00098FEF7FF
:1048700087FC6F203070002082E700BF2D68002D7C
:10488000A7D10098FEF77CFCBBF1010F01D1FEF728
:104890001EFEFEF771FC0090208901900098FEF743
:1048A0006FFC0020307001986AE72DE9F041044662
:1048B0000D46002724B96E2028700020BDE8F08145
:1048C0002078052803D0012028700020F6E7FEF7A5
:1048D00053FC074626893846FEF752FC0020287014
:1048E0003046EBE72DE9F04150211348FFF775F80A
:1048F00000250EE0681C86B20F4800EB051400EBA3
:104900000617002020706760AFF23830E060681C46
:1049100085B2042DEED3084800EB0514002020706A
:104920006060AFF25030E060034804490860BDE8C1
:10493000F0810000A0000020443100207C00002015
:104940002DE9FC5F05460F4691461E46002000906B
:1049500025B9622030700020BDE8FC9F05F00300FF
:1049600018B1622030700020F6E7022F03D25B20DE
:1049700030700020F0E7B9F1040F03D25C203070F2
:104980000020E9E7FEF7F8FB00907F480468006824
:1049900020B17D48006840687B4908600098FEF7B8
:1049A000EFFB1CB95A2030700020D5E7AA46A84674
:1049B000781E01904FF0000B05E0C844CAF8008053
:1049C000C2460BF1010B01988345F6D30020CAF8CB
:1049D0000000256065602761E760C4F808903070CA
:1049E0002046B9E72DE9F04104460D46002724B9D9
:1049F000602028700020BDE8F081FEF7BDFB07466F
:104A0000206960B16668306860602069401E20617E
:104A10003846FEF7B5FB002028703046EBE73846F5
:104A2000FEF7AEFB5D2028700020E4E72DE9F041A1
:104A300006460D461446002726B960202070002047
:104A4000BDE8F0811DB90C2020700020F8E74F4828
:104A5000007818B1112020700020F1E7FEF78CFBE0
:104A60000746706928602868FEF790FC8046384643
:104A7000FEF786FB002020704046E1E72DE9F0417B
:104A800005460E46144600271DB960202070BDE87B
:104A9000F08116B90C202070F9E73C48007810B17D
:104AA00012202070F3E7FEF767FB07466E61384679
:104AB000FEF766FB0020207000BFE8E770B50446F3
:104AC0000D4600260CB9602070BD0DB95F20FBE7D4
:104AD000FEF752FB0646D4E90310884204D3304661
:104AE000FEF74EFB5E20EFE7606828606560206996
:104AF000401C20613046FEF743FB0020E4E770B520
:104B000005460C4600260DB9602070BD0CB9612029
:104B1000FBE7FEF731FB06462868206068686060A6
:104B2000A868A060E868E060286920613046FEF768
:104B300027FBD4E90301401A60610020E5E770B566
:104B400078211348FEF749FF00240EE004EB4400EF
:104B50000F4901EBC005601C00EB400001EBC000F9
:104B600068600CA06861601C84B2042CEED304EB76
:104B70004400074901EBC0050020686005A068619A
:104B800008460149086070BDB40000208D00002077
:104B9000944100203F0000002DE9F04106460D46FB
:104BA0004FF0000826B9042028700020BDE8F081ED
:104BB0003078022803D0012028700020F6E7FEF7A5
:104BC000DBFA80467468E08A78B12169081D2061AB
:104BD0000F68E08A401EE082A1682069884201D106
:104BE000606820610020287002E01F2028700027E4
:104BF0004046FEF7C5FA3846D8E72DE9F0410646AB
:104C00000F464FF00008FA48007810B10020BDE8C8
:104C1000F081FEF7B1FA8046F6480468006820B1DA
:104C2000F44800684068F34908604046FEF7A8FA77
:104C3000FCB1FEF7A1FA8046EF480568D5B10068DF
:104C40000068ED4908604046FEF79AFA6E6006EB90
:104C50008700A860EE602E61AF820020E88202200B
:104C60002070002020816560E4A060612046FFF78D
:104C700066F908E0DF4800686060DE48046040468E
:104C8000FEF77EFA00242046C1E72DE9F0470446EE
:104C9000894615464FF0000A24B9042028702046A2
:104CA000BDE8F0872078022803D001202870204634
:104CB000F6E7CF48007818B10F2028702046EFE7BC
:104CC000FEF75AFA8246A07A10B14FF0010801E0CF
:104CD0004FF00008B9F1000F03D0B9F1010F49D12D
:104CE00021E0B8F1000F17D1C4A060616668C24826
:104CF00000683060C048066000202070BD48006831
:104D0000606000202081BB4804605046FEF738FAFE
:104D100000202870002705E05046FEF731FA4920B0
:104D2000287027462DE005E000230422194620467E
:104D3000FFF78DF8A07A0028F6D1B0A06061666810
:104D4000AD4800683060AC48066000202070A9487B
:104D50000068606000202081A64804605046FEF78D
:104D60000FFAB8F1010F01D1FEF7B1FB0020287056
:104D7000002706E05046FEF703FA07202870274672
:104D800000BF00BF38468BE770B5054600260DB959
:104D9000042070BD2878022801D00120F9E7FEF731
:104DA000EBF906466C686068E0606068206100208E
:104DB000E0823046FEF7E4F90020EAE72DE9F0470B
:104DC0000646884615464FF0000926B9042028708B
:104DD0000020BDE8F0873078022803D00120287039
:104DE0000020F6E78248007818B1022028700020E1
:104DF000EFE78348007818B10D2028700020E8E71D
:104E0000FEF7BAF981467468E08A98B12169081DF5
:104E100020610F68E08A401EE082A1682069884214
:104E200001D1606820614846FEF7AAF90020287089
:104E30003846CEE77348006890F8340040F004002C
:104E40007049096881F8340000206E49096881F8CA
:104E500035006C480068C0F830803046FFF737F8FE
:104E60004846FEF78DF9FEF732FBFEF785F98146DD
:104E70006448006890F8350020B101280DD0022860
:104E80000AD105E05F480068476A002028700DE0FD
:104E900000270E20287009E000BF314659480068FD
:104EA000FEF7C0FF00270A20287000BF00BF0020C7
:104EB0005449096881F834005249096881F835007D
:104EC00050490968C8614F49096808624D49096835
:104ED00048624846FEF754F938467AE72DE9F04132
:104EE00004460F4615464FF0000824B904202870E8
:104EF0000020BDE8F0812078022803D0012028702E
:104F00000020F6E7FEF738F98046A07A20B30026A5
:104F10007FB1012F0CD107E002230422002120469B
:104F2000FEF795FF701CC6B2A07A0028F4D109E004
:104F300000BF0223042200212046FEF788FF701CD8
:104F4000C6B200BF00BF4046FEF71AF9FEF7BFFA2F
:104F50000E2028703046CCE74046FEF711F90020BD
:104F6000287000BFC5E72DE9F04105460E46002731
:104F700015B90420BDE8F0812878022801D001206D
:104F8000F8E7FEF7F9F80746A87A60B10023042293
:104F900031462846FEF75BFF3846FEF7F1F8FEF78C
:104FA00096FA0020E6E76C68E08AA18A884204DB72
:104FB0003846FEF7E5F81E20DCE7E168081DE060F2
:104FC0000E60E08A401CE082D4E90210884201D1E0
:104FD0006068E0603846FEF7D3F80020CAE72DE9A4
:104FE000F04105460E46002775B90420BDE8F08162
:104FF0008D00002078000020B80000203F00000055
:105000008E000020A00000202878022801D0012076
:10501000ECE7FEF7B1F80746A87A60B10023042256
:1050200031462846FEF713FF3846FEF7A9F8FEF78B
:105030004EFA0020DAE76C68E08AA18A884204DB35
:105040003846FEF79DF81E20D0E761682069884247
:1050500001D1A06820612069001F206120690660DD
:10506000E08A401CE0823846FEF78AF80020BDE75F
:105070002DE9F04105460F4616464FF0000815B9D8
:105080000420BDE8F0812878022801D00120F8E74B
:10509000FEF772F88046A87AE8B106F0010050B138
:1050A00005E00023042239462846FEF7D0FEA87A00
:1050B0000028F6D105E00023042239462846FEF7F1
:1050C000C6FE4046FEF75CF806F0040008B9FEF79D
:1050D000FEF90020D5E76C68E08AA18A884204DBEB
:1050E0004046FEF74DF81E20CBE706F0020058B10F
:1050F00061682069884201D1A06820612069001F91
:1051000020612069076009E0E168081DE0600F6028
:10511000D4E90210884201D16068E060E08A401C56
:10512000E0824046FEF72CF80020AAE72DE9F04780
:1051300005460C464FF0000A15B90420BDE8F0877B
:105140000CB90920FAE72878022801D00120F5E7F8
:10515000FEF712F88246A87A207405F10B0804F1D4
:105160000809002705E018F8010B09F8010B781C65
:10517000C7B2082FF7D36E68F08A18B1306900689B
:10518000206001E000202060F08AA080B08AE080EA
:105190005046FDF7F5FF0020D0E72DE9F0416021F2
:1051A0001048FEF71AFC00240DE0601C86B204EBE8
:1051B00044000C4901EBC00506EB460001EBC007BB
:1051C0002F60601C84B2032CEFD304EB440005492C
:1051D00001EBC00500202860084603490860BDE8CF
:1051E000F08100000C420020B800002070B5044699
:1051F00000260CB9002070BD2078032801D00020C3
:10520000F9E7FDF7B9FF0646258915B12089401E4B
:1052100020813046FDF7B4FF2846ECE770B505461F
:105220000026E548007808B1002070BDFDF7A4FF16
:105230000646E2480468006820B1E048006840681B
:10524000DE4908603046FDF79BFF4CB1032020701B
:10525000258100206060DAA060612046FEF76FFEC5
:105260002046E2E72DE9F0470446884615464FF010
:10527000000924B9042028702046BDE8F087207872
:10528000032803D0012028702046F6E7CA4800789A
:1052900018B10F2028702046EFE7FDF76DFF81461B
:1052A000A07A08B1012700E00027B8F1000F03D071
:1052B000B8F1010F3AD119E08FB9C1A060610020A7
:1052C0002070BE480068606000202081BB480460F8
:1052D0004846FDF755FF00202870002605E04846A7
:1052E000FDF74EFF49202870264626E005E0002302
:1052F000012219462046FEF7AAFDA07A0028F6D121
:10530000AFA0606100202070AC48006860600020A1
:105310002081AA4804604846FDF732FF012F01D1E1
:10532000FEF7D5F800202870002606E04846FDF775
:1053300027FF07202870264600BF00BF30469CE7A5
:105340002DE9F04105460E46144600271DB90420FC
:105350002070BDE8F0812878032802D00120207059
:10536000F7E79548007810B102202070F1E79548E2
:10537000007810B10D202070EBE7FDF7FDFE074629
:10538000288940B12889401E28813846FDF7F8FE5B
:1053900000202070DDE78C48006890F8340040F071
:1053A00001008949096881F83400002086490968AC
:1053B00081F835008448006806632846FEF787FDBB
:1053C0003846FDF7DDFEFEF782F8FDF7D5FE07460D
:1053D0007D48006890F8350020B1012809D00228E6
:1053E00006D102E0002020700BE00E20207008E0C3
:1053F00000BF294674480068FEF714FD0A2020709B
:1054000000BF00BF00207049096881F834006E4970
:10541000096881F835006C490968C8616A490968FA
:1054200008623846FDF7ACFE00BF92E72DE9F04177
:1054300004460F4615464FF0000824B90420287092
:105440000020BDE8F0812078032803D001202870D7
:105450000020F6E7FDF790FE8046A07A20B30026F4
:105460007FB1012F0CD107E0022301220021204649
:10547000FEF7EDFC701CC6B2A07A0028F4D109E05A
:1054800000BF0223012200212046FEF7E0FC701C31
:10549000C6B200BF00BF4046FDF772FEFEF717F828
:1054A0000E2028703046CCE74046FDF769FE00200C
:1054B000287000BFC5E770B5044600250CB904206C
:1054C00070BD2078032801D00120F9E7FDF754FED4
:1054D0000546A07A60B10023012219462046FEF756
:1054E000B6FC2846FDF74CFEFDF7F1FF0020E7E78C
:1054F00020894FF6FF71884207D22089401C208105
:105500002846FDF73DFE0020DAE72846FDF738FE85
:105510003320D5E72DE9F04704460D464FF000094A
:1055200014B90420BDE8F0870DB90920FAE7207806
:10553000032801D00120F5E7FDF71EFE8146A07A81
:10554000A87204F10B0705F10208002605E017F820
:10555000010B08F8010B701CC6B2082EF7D3208986
:1055600028804846FDF70CFE0020DBE72DE9F041DE
:1055700004460E46154600271CB904202870BDE8D5
:10558000F0812078032802D001202870F7E7FDF78A
:10559000F3FD074600202870208908B1268105E028
:1055A000A07A08B9268101E0492028703846FDF725
:1055B000E7FD00BFE3E700008D0000207800002039
:1055C0003F0000008E000020A00000202DE9F04FD9
:1055D00085B08146884600200090B9F13F0F06D380
:1055E000B9F1FF0F03D02A2005B0BDE8F08FB8F164
:1055F0003F0F01D32A20F7E7FDF7BEFD0090F948E1
:1056000050F8280020B10098FDF7BAFD2820EBE7FC
:10561000B9F1FF0F03D1F448006890F83690F148D3
:1056200050F8295025B90098FDF7AAFD2920DBE79D
:10563000012D04D10098FDF7A3FD4320D4E74FEAE4
:10564000E80708F0070003900120B84000F0FF0AC7
:1056500001210398814001F0FF0B0020E14941F84E
:105660002900084640F8285015F8386FA8780290AD
:105670006878383D0190DD48815D01980140D1B1E5
:10568000DA48805D01998843D84988550846805D8D
:1056900028B9D748007802998843D5490870D4487A
:1056A000007840EA0A00D2490870D048C05D40EA5C
:1056B0000B00CE49C855EC69D4B104F10B00805DF4
:1056C0000199884304F10B0188550846805D18B99B
:1056D000A07A02998843A072A07A40EA0A00A072D8
:1056E00004F10B00C05D40EA0B0004F10B01C8554A
:1056F000286A30B3286A0490049804681FE004F113
:105700000B00805D0199884304F10B018855084620
:10571000805D18B9A07A02998843A072A07A40EA05
:105720000A00A07204F10B00C05D40EA0B0004F116
:105730000B01C8550498001D049004980468002CBF
:10574000DDD185F8368085F83870039885F8370004
:1057500085F83AA085F839B00098FDF711FDA54805
:105760000078012801D1FDF7B2FE00203CE72DE9C9
:10577000FE4F06460F4690461C464FF000093F2C50
:1057800002D92A20BDE8FE8FFDF7F6FC81469A4833
:10579000007820B14846FDF7F3FC3C20F2E7914841
:1057A00050F8240060BB01208E4941F8240048468F
:1057B000FDF7E6FC0023424639463046FDF7A1FBE3
:1057C0008246002000900190034602465146029016
:1057D0002046FEF7CCFB054635B9864800780128FF
:1057E0000CD1FDF774FE09E0FDF7C6FC81460020F0
:1057F0007C4941F824004846FDF7C2FC2846C1E731
:105800004846FDF7BDFC2820BCE702F0010343B188
:1058100002F002032BB102E0491E002308C0002958
:10582000FAD170472DE9F04F85B081468A469346FC
:105830001C46DDE90F78129D002003903F2C03D910
:105840002A2005B0BDE8F08FFDF796FC03906A486A
:10585000007820B10398FDF793FC3C20F1E7614804
:1058600050F8240088BB01205E4941F824000398C9
:10587000FDF786FC2A4641463846FFF7C6FF2B4611
:105880005A4651464846FDF73CFB04901198CDE935
:10589000008002953A4620460E9B0499FEF767FB6E
:1058A000064636B95348007801280CD1FDF70FFEA3
:1058B00009E0FDF761FC039000204A4941F824000B
:1058C0000398FDF75DFC3046BBE7FFE70398FDF763
:1058D00057FC2820B5E72DE9F0410546002746484A
:1058E000007810B14020BDE8F0813F2D01D13E206D
:1058F000F9E73F2D03D3FF2D01D02A20F3E7FDF771
:105900003BFC0746FF2D03D13748006890F836501E
:10591000344850F8254024B93846FDF731FC43207F
:10592000E1E7012C04D13846FDF72AFC3D20DAE7F7
:1059300014F8380F2D49085C6178884321782B4A88
:10594000505414F838091146085C30B994F83A10EC
:1059500027480078884326490870E06918B1204636
:10596000E169FEF75FFA206A18B12046216AFDF767
:1059700084FDA66A16B13046FEF75EFC0020206367
:1059800084F8340084F835001C480078FF2804D2DD
:105990001A480078401C194908703846FDF7F0FB9A
:1059A000FEF73FFAFDF7E8FB07461448007820B100
:1059B00012480078401E114908702046FDF793FAFE
:1059C0000F480078401E0E4908700020054941F834
:1059D0002500A069C0B90020616988610949606932
:1059E000086017E094350020A000002092000020FD
:1059F000910000209A0000208D0000208E000020E1
:105A00009B000020AC000020D4E905014861D4E9E6
:105A100005108861F74800686061F6480460F6A0E8
:105A200020653846FDF7ACFBF4480078012801D129
:105A3000FDF74DFD002056E72DE9F0410446002713
:105A40003F2C02D13E20BDE8F0813F2C03D3FF2C38
:105A500001D02A20F7E7FF2C0BD1FDF78DFB07467D
:105A6000E748006890F83B603846FDF789FB304610
:105A7000E9E7FDF781FB0746E24850F8245025B9D5
:105A80003846FDF77DFB4320DDE7012D04D1384684
:105A9000FDF776FB3D20D6E73F2085F83B003846F2
:105AA000FDF76EFB0020CEE72DE9F04705460E46D8
:105AB00014464FF000083F2D06D9FF2D04D02A20B0
:105AC00020700020BDE8F0871EB90C202070002057
:105AD000F8E7CD48007818B1112020700020F1E7D8
